:10058700A0AF988A87C2C0AE808284C1F089D0D4D8
:1005970085F1A4A194C9DFFFFF0202000104000056
:0305A70002010648
:1005C800020C00000210000002090258C101C10219
:0905D800C100010F050212000030
:10042C00C3E5139403E51264809480400FAE0CAFC7
:10043C000D7C007D641200308C0C8D0DAE0CAF0D5C
:10044C007C007D0A12001EAC06AD0774A02513F5C6
:10045C008274053512F583E493FF7A002DF50DEACD
:10046C003CF50C1205190513E513700205127F6497
:05047C007E000205678F
:10037400AB0DAA0CE4F512F513EB4A60307C007D5A
:100384000AAF03AE02120030E51325E02414F8A6E8
:100394000408A6050513E513700205127C007D0A06
:1003A400AF03AE02120030AA06AB0780CC75120070
:1003B400751302E51325E02414F808E6FF12051965
:1003C400E513151370021512C3E51264809480506E
:0103D400E246
:0103D5002205
:1005AA001203081201EAE4F50CF50D209305B202D4
:0E05BA003093FDA202E4FE33FF12048180EDB7
:100308007580FF7590FF75A0FF75B0FF758911AFF7
:100318000F7E007C017DF412001EE4C39FFFE49E63
:10032800FE74019400FDE49400FCE4FB7A01F9F802
:100338001204D5AF038F8AAF0F7E007C017DF412C3
:10034800001EE4C39FFFE49EFE74019400FDE49444
:1003580000FCE4FB7A01F9F81204D58F8C758BB098
:0C036800758D3C75A88A75B808D28C22EF
:0B055C00D2957F017E00120567C2955A
:10056700E4FDFCC3ED9FEC9E5015E4FBFA0BBB00CA
:0F057700010AEB643B4A70F50DBD00010C80E4F6
:010586002252
:03000B000201539C
:10015300C0E0C0F0C083C082C0D075D000C000C072
:1001630002C003C004C005C006C007758A3C758C75
:10017300F6AE0CAF0D7C007D641200308F08AE0C20
:10018300AF0D7C007D0A1200307C007D0A12003026
:100193008D0BAE0CAF0D7C007D0A1200308D0EE589
:1001A3000E90058793F580C2A77F017E0012056735
:1001B300D2A7E50B93F580C2A47F01120567D2A4F1
:1001C300E50893F580C2A17F01120567D2A1D0078C
:1001D300D006D005D004D003D002D000D0D0D08236
:0701E300D083D0F0D0E03220
:03001B000203D607
:1003D600C0E0C0F0C0D075D000C000C004C005C0E9
:1003E60006C007758BB0758D3C0511E511700205C9
:1003F60010B50A0DE510B50908751000751100D283
:1004060001300011AE10AF117C007D0A120030EDF4
:100416004C7002B2B4D007D006D005D004D000D0BC
:06042600D0D0F0D0E0325E
:10048100EF4E600AC297750900750A288008D29755
:10049100750902750A5820903AC200E4F50CF50D71
:1004A100D28EC2B420A00B050DE50D7002050C30F3
:1004B100A0FD3001EFC28ED2B4C201EF4E600FAE8B
:1004C1000CAF0D7C007D0C12001E8E0C8F0D1203E3
:0404D10074D20022BF
:0E05E200D2967F027E00120567C29602056760
:020519008F1A37
:10051B00E4F93094FD1205E2E51AC394004023E59B
:10052B001AD39409501CE4F9E51A2402FFE433FEB4
:10053B00E9C39FEE6480F8748098501412055C092F
:10054B0080E6E4F9E9C3951A500612055C0980F4BC
:01055B00227D
:080003003094FD7F2102051974
:1001EA00E4F5807F1A1205197F1C1205197F021285
:1001FA000519E4FF1205197F021205197F04120579
:10020A00197F111205197F041205197F1212051997
:10021A007F031205197F131205197F141205197F1E
:10022A00031205197F171205197F1D1205197F0977
:10023A001205197F0E1205197F031205197F0C1278
:10024A0005197F0F120519E4F512F51374A0251389
:10025A00F58274053512F583E493FF120519051327
:10026A00E51370020512C3940AE512648094804073
:02027A00DB2285
:0300000002027C7D
:0C027C00787FE4F6D8FD7581200202C3F3
:10001E00EF8DF0A4A8F0CF8CF0A428CE8DF0A42EF6
:02002E00FE22B0
:10003000BC000BBE0029EF8DF084FFADF022E4CCB4
:10004000F875F008EF2FFFEE33FEEC33FCEE9DEC7D
:10005000984005FCEE9DFE0FD5F0E9E4CEFD22EDC3
:10006000F8F5F0EE8420D21CFEADF075F008EF2F0D
:10007000FFED33FD4007985006D5F0F222C398FDFE
:050080000FD5F0EA229B
:1004D500C2D5E830E70FB2D5E4C39BFBE49AFAE452
:1004E50099F9E498F8EC30E717B2D512050B12002C
:1004F500C1E4C39BFBE49AFAE499F9E498F8800314
:100505001200C130D50DE4C39FFFE49EFEE49DFDBE
:04051500E49CFC2244
:100288000205AAE493A3F8E493A34003F68001F2DD
:1002980008DFF48029E493A3F85407240CC8C33377
:1002A800C4540F4420C8834004F456800146F6DF46
:1002B800E4800B01020408102040809005C8E47E09
:1002C800019360BCA3FF543F30E509541FFEE4933B
:1002D800A360010ECF54C025E060A840B8E493A302
:1002E800FAE493A3F8E493A3C8C582C8CAC583CA2D
:1002F800F0A3C8C582C8CAC583CADFE9DEE780BEE5
:0105E1000019
:1000850075F008758200EF2FFFEE33FECD33CDCC32
:1000950033CCC58233C5829BED9AEC99E5829840B5
:1000A5000CF582EE9BFEED9AFDEC99FC0FD5F0D692
:1000B500E4CEFBE4CDFAE4CCF9A88222B800C1B9BC
:1000C5000059BA002DEC8BF084CFCECDFCE5F0CBFA
:1000D500F97818EF2FFFEE33FEED33FDEC33FCEB33
:1000E50033FB10D703994004EB99FB0FD8E5E4F9EE
:1000F500FA227818EF2FFFEE33FEED33FDEC33FCDB
:10010500C933C910D7059BE99A4007EC9BFCE99ACE
:10011500F90FD8E0E4C9FAE4CCFB2275F010EF2F13
:10012500FFEE33FEED33FDCC33CCC833C810D70713
:100135009BEC9AE899400AED9BFDEC9AFCE899F84E
:0E0145000FD5F0DAE4CDFBE4CCFAE4C8F922E1
:00000001FF
