:04013900020A007B3B
:1000FD00E4F50DF50EF50DF50EAF0E12008F050E94
:10010D00E50E7002050DC3E50D6480948140EA7F14
:06011D000112008F80FEBC
:0B00D200D2957F017E001200DDC29578
:1000DD00E4FDFCC3ED9FEC9E5015E4FBFA0BBB0059
:0F00ED00010AEB643B4A70F50DBD00010C80E485
:0100FC0022E1
:0E012300D2967F027E001200DDC2960200DD41
:02008F008F0FD1
:10009100E4F93094FD120123E50FC394004023E5F8
:1000A1000FD39409501CE4F9E50F2402FFE433FE59
:1000B100E9C39FEE6480F874809850141200D2094D
:1000C10080E6E4F9E9C3950F50061200D20980F4E5
:0100D100220C
:080131003094FD7F2102008FD4
:01013E00229E
:03000000020003F8
:0C000300787FE4F6D8FD75810F02004AFA
:10000F000200FDE493A3F8E493A34003F68001F20A
:10001F0008DFF48029E493A3F85407240CC8C333F2
:10002F00C4540F4420C8834004F456800146F6DFC1
:10003F00E4800B0102040810204080900139E47E17
:10004F00019360BCA3FF543F30E509541FFEE493B6
:10005F00A360010ECF54C025E060A840B8E493A37D
:10006F00FAE493A3F8E493A3C8C582C8CAC583CAA8
:10007F00F0A3C8C582C8CAC583CADFE9DEE780BE60
:01013D0000C1
:00000001FF
