:100AB900A0AF988A87C2C0AE8086202F180A074245
:0E0AC900402E00060202000104000002010699
:1007FE000228037802160000021B0000022F0000E0
:10080E00023600000135050210000002140000023D
:10081E000E0001020C0000020A000102210001027A
:10082E002300010240FFFF022A00000231000002F5
:10083E00420000021D0001021F0000023E000002E5
:10084E00080000022500000218000002330000021A
:10085E00120000022C0000023C0000023A000002CE
:03086E003800004F
:10094700C3E53B9403E53A64809480400FAE28AF3B
:10095700297C007D6412042F8C288D29AE28AF29AD
:100967007C007D0A12041DAC06AD0774CD253BF54E
:1009770082740A353AF583E493FF7A002DF529EA64
:100987003CF52812099C053BE53B7002053A7F645C
:050997007E00020A755C
:1008E00020935AE5226401452170527F0AFE120AC4
:1008F00075E4F521F52220934DB297F528F52905E9
:1009000020E5207002051FE4F531F532D2B4E52070
:100910006407451F7030F51F752002F525F526F593
:1009200008F509F53EF53FF528F529F518F519F50F
:1009300033F534F51D751E01F538F539223093066F
:070940007521007522012260
:100A310020902AE5246401452370227F0AFE120AD0
:100A410075E4F523F52420901DF528F529AE1DAF99
:100A51001EAC40AD4112041D8E1D8F1E223090062A
:070A6100752300752401223A
:10023F0012001E1208721208E0E51F70F9E5202463
:10024F00FE70030202D31470030202EC1470030257
:10025F00030F14700302037D1470030203B124060D
:10026F0070D4E52B452A700B7F1A12099C752A0052
:10027F00752B01E54345427019E52B6401452A7042
:10028F00117F587E02120A75E4F528F529F542759B
:10029F004301E54364014542700BE52B6401452A98
:1002AF007003120947C3E53B940AE53A64809480D2
:1002BF004084751F00752001E4F528F529F536F502
:1002CF0037020245120AD7E515640145146003028F
:1002DF000245E511451060030202458017120AF32B
:1002EF00E515640145146003020245E511451060F0
:1002FF0003020245120A957510007511010202459D
:10030F00E53945387010F51D751E01F53875390141
:10031F00F528F529D28E120A31E51EB4FF0DE51D21
:10032F00B4FF08C2B4751200751301E51EB4FF14B3
:10033F00E51DB4FF0FE51945187009120003751874
:10034F0000751901E51E6401451D700CF518F519AE
:10035F00F512F513F528F529C3E52994E7E5289457
:10036F00035003020245E4F528F52902024530A0A7
:10037F0019E51745167013053FE53F7002053E85D9
:10038F003E28F52975160075170130A003020245A6
:10039F00E517640145166003020245F516F51702CD
:1003AF00024530A01FE51745167019E52645257043
:1003BF00130509E50970020508850828F529751642
:1003CF000075170120A00CE517640145167004F5A0
:1003DF0016F517120A31E51EF47003E51DF46003DC
:1003EF00020245C2B4F525752601E5344533600395
:1003FF00020245E509253FF529E508353EF52812A6
:0E040F000003120A9575330075340102024590
:100872007580FF7590FF75A0FF75B0FF758911AF88
:10088200357E007C017DF412041DE4C39FFFE49ECB
:10089200FE74019400FDE49400FCE4FB7A01F9F893
:1008A2001209EDAF038F8AAF357E007C017DF41211
:1008B200041DE4C39FFFE49EFE74019400FDE494D2
:1008C20000FCE4FB7A01F9F81209ED8F8C758BB00C
:0E08D200758D3C75A88A75B808D28CD28E221E
:0D0A6800900ABBE493F580C2A77F017E00D9
:100A7500E4FDFCC3ED9FEC9E5015E4FBFA0BBB00B7
:0F0A8500010AEB643B4A70F50DBD00010C80E4E3
:010A9400223F
:03000B0002066684
:10066600C0E0C0F0C083C082C0D075D000C000C05A
:1006760002C003C004C005C006C007758A3C758C5D
:10068600F6AE28AF297C007D0A12042F8D2EAE28E7
:10069600AF297C007D6412042F8F1AAE28AF297C07
:1006A600007D0A12042F7C007D0A12042F8D27E597
:1006B600206404451F702CE52E900AB9120A6CD2EC
:1006C600A7E527900AC393F580C2A47F01120A7595
:1006D600D2A4E51A900AB993F580C2A17F01120A45
:1006E60075D2A1E5206405451F6008E5206406452E
:1006F6001F7022E52E900AB9120A6CD2A7E527933D
:10070600F580C2A47F01120A75D2A47580FEC2A12B
:10071600120A75D2A1E5206405451F6036E52064FE
:1007260006451F602EE5206404451F6026E52E90D1
:100736000AB9120A6CD2A7E52793F580C2A47F01F5
:10074600120A75D2A4E51A93F580C2A17F01120A96
:1007560075D2A1D007D006D005D004D003D002D0E0
:0C07660000D0D0D082D083D0F0D0E032A0
:03001B0002055289
:10055200C0E0C0D0E51EB4FF1DE51DB4FF18E513D1
:10056200640145127010051CE51C7002051B05296B
:10057200E52970020528E53264014531600302066F
:10058200610537E5377002053630A022E50D450CCE
:10059200701CE51545147016E5206402451F700EA7
:1005A2000529E52970020528750C00750D0130A09A
:1005B20025E50D450C701FE51545147019E52064FD
:1005C20003451F701174062529F529E43528F528FD
:1005D200750C00750D0130A02DE50D450C7027E559
:1005E2001545147021E5206403451F6019E5206458
:1005F20002451F601174062529F529E43528F528DE
:10060200750C00750D0120A012E50D6401450C70FA
:100612000AE51545147004F50CF50DE51564014560
:10062200147008C28ED2B4F531F532E537B45816DB
:10063200E536B40211E5206402451F7009F536F56E
:1006420037F514751501E537642845367011E52034
:100652006403451F7009F536F537F514751501D099
:04066200D0D0E032E2
:100AD700209018E4F514F515758BB0758D3CC2B4EC
:0C0AE700F510F511F531753201D28E22A8
:100AF300209012E4F514F515C2B4F510F511F53193
:060B0300753201D28E22C2
:0E0B0900D2967F027E00120A75C296020A750D
:02099C008F4486
:10099E00E4F93094FD120B09E544C39400402AE5B6
:1009AE0044D394095023E4F9E5442402FFE433FED2
:1009BE00E9C39FEE6480F87480985022D295120A93
:1009CE0071C295120A750980DFE4F9E9C3954450A6
:0E09DE000DD295120A71C295120A750980EDAC
:0109EC0022E8
:080003003094FD7F2102099CED
:100A9500AF1A12099C7F647E00120A75AF271209EE
:100AA5009C7F647E00120A75AF2E12099C7F647EBE
:040AB50000020A75BC
:10001E00E4F580C2A7C2A4C2A17F1A12099C7F1C5C
:10002E0012099CD2A7D2A4D2A17F0212099CE4F598
:10003E0036F537120A68D2A70537E537700205364E
:10004E00C394FAE536940040EAE4FF12099CE4F505
:10005E0036F537900AB9120A6BD2A7900ABBE49311
:10006E00F580C2A4120A75D2A40537E537700205D1
:10007E0036C394FAE536940040D97F0212099CE407
:10008E00F536F537120A68D2A7900AB9E493F580CF
:10009E00C2A4120A75D2A4900ABBE493F580C2A141
:1000AE00120A75D2A10537E53770020536C394FAE8
:1000BE00E536940040CE7F0412099CE4F536F53700
:1000CE00900ABD120A6BD2A7900ABBE493F580C2C8
:1000DE00A4120A75D2A4900AB9E493F580C2A112B3
:1000EE000A75D2A10537E53770020536C394FAE5D5
:1000FE0036940040CB7F1112099C7F0412099CE4B8
:10010E00F536F537758007120A6FD2A70537E53732
:10011E0070020536C394FAE536940040E77F12125A
:10012E00099C7F0212099CE4F536F537120A68D253
:10013E00A7758007C2A4120A75D2A40537E53770D9
:10014E00020536C394FAE536940040E07F13120997
:10015E009C7F1412099C7F0212099C7F1712099C26
:10016E007F1D12099C7F0912099CE4F536F537753F
:10017E008002120A6FD2A70537E53770020536C323
:10018E0094FAE536940040E77F0E12099C7F031225
:10019E00099CE4F536F537900ABC120A6BD2A775A6
:1001AE008002C2A4120A75D2A40537E53770020583
:1001BE0036C394FAE536940040DD7F0C12099CE4B8
:1001CE00F536F537900AB9120A6BD2A7900ABCE43D
:1001DE0093F580C2A4120A75D2A4758002C2A11230
:1001EE000A75D2A10537E53770020536C394FAE5D4
:1001FE0036940040CF7F0F12099CE4F536F5379008
:10020E000AB9120A6BD2A7900ABCE493F580C2A475
:10021E00120A75D2A4758002C2A1120A75D2A10566
:10022E0037E53770020536C394F4E536940140CFB6
:01023E00229D
:0300000002077282
:0C077200787FE4F6D8FD7581440207B9D9
:10041D00EF8DF0A4A8F0CF8CF0A428CE8DF0A42EF3
:02042D00FE22AD
:10042F00BC000BBE0029EF8DF084FFADF022E4CCB1
:10043F00F875F008EF2FFFEE33FEEC33FCEE9DEC7A
:10044F00984005FCEE9DFE0FD5F0E9E4CEFD22EDC0
:10045F00F8F5F0EE8420D21CFEADF075F008EF2F0A
:10046F00FFED33FD4007985006D5F0F222C398FDFB
:05047F000FD5F0EA2298
:1009ED00C2D5E830E70FB2D5E4C39BFBE49AFAE435
:1009FD0099F9E498F8EC30E717B2D5120A231204EE
:100A0D00C0E4C39BFBE49AFAE499F9E498F88003F7
:100A1D001204C030D50DE4C39FFFE49EFEE49DFD9E
:040A2D00E49CFC2227
:10077E0002023FE493A3F8E493A34003F68001F250
:10078E0008DFF48029E493A3F85407240CC8C3337C
:10079E00C4540F4420C8834004F456800146F6DF4B
:1007AE00E4800B01020408102040809007FEE47ED6
:1007BE00019360BCA3FF543F30E509541FFEE49340
:1007CE00A360010ECF54C025E060A840B8E493A307
:1007DE00FAE493A3F8E493A3C8C582C8CAC583CA32
:1007EE00F0A3C8C582C8CAC583CADFE9DEE780BEEA
:010871000086
:1004840075F008758200EF2FFFEE33FECD33CDCC2F
:1004940033CCC58233C5829BED9AEC99E5829840B2
:1004A4000CF582EE9BFEED9AFDEC99FC0FD5F0D68F
:1004B400E4CEFBE4CDFAE4CCF9A88222B800C1B9B9
:1004C4000059BA002DEC8BF084CFCECDFCE5F0CBF7
:1004D400F97818EF2FFFEE33FEED33FDEC33FCEB30
:1004E40033FB10D703994004EB99FB0FD8E5E4F9EB
:1004F400FA227818EF2FFFEE33FEED33FDEC33FCD8
:10050400C933C910D7059BE99A4007EC9BFCE99ACB
:10051400F90FD8E0E4C9FAE4CCFB2275F010EF2F10
:10052400FFEE33FEED33FDCC33CCC833C810D70710
:100534009BEC9AE899400AED9BFDEC9AFCE899F84B
:0E0544000FD5F0DAE4CDFBE4CCFAE4C8F922DE
:00000001FF
