:0600030001080001090ADA
:0F037F00758911758ACD758CFF75A88AD28C226D
:03000B00020318D5
:10031800C0E0C0D075D000C000C006C007758ACD47
:10032800758CFF0508E508D394144003750800E5AB
:10033800092401FFE433FEC3E5089FEE6480F874E6
:100348008098500BE508C394155004D2B78002C2B8
:0C035800B7D007D006D000D0D0D0E032E3
:1001E20012037F1203AC1203A912039BE4F50AF572
:1001F2000BC2B67F017E00120364D2B67F017E007D
:10020200120364050BE50B7002050AC39464E50A48
:10021200940040DD7FE87E0312036412038E750AA8
:1002220000750B01AF0B12000EC37420950BFF1269
:10023200000E7F0A7E00120364B2B6050BE50B7056
:1002420002050AC39411E50A940040D87FF47E01A6
:10025200120364750A00750B01AF0B1200F8C37428
:1002620020950BFF1200F87F0A7E00120364B2B6DB
:10027200050BE50B7002050AC39411E50A940040D0
:0A028200D87FF47E0112036480941B
:0303A600DFFE2255
:10036400AD07AC06ED1DAE0470011C4E600C7FF5AC
:0B0374001203A67FF51203A680EA2208
:0303A900C2B722B6
:0303AC00D2B722A3
:0B039B00E4F580F590F5A053B0C022FF
:0D038E007580FF7590FF75A0FF43B03F2202
:10000E00EF14B41E0040030200F790002675F003B3
:10001E00A4C58325F0C5837302008002008402000C
:10002E008802008C02009002009402009802009C4C
:10003E000200A00200A40200A80200AC0200B0025E
:10004E0000B40200B80200BC0200C00200C40200EC
:10005E00C80200CC0200D00200D40200D80200DC9C
:10006E000200E00200E40200E80200EC0200F002EE
:10007E0000F453807F225380BF225380DF225380AF
:10008E00EF225380F7225380FB225380FD225380B0
:10009E00FE225390FE225390FD225390FB2253904A
:1000AE00F7225390EF225390DF225390BF225390AA
:1000BE007F2253B0FE2253B0FD2253B0FB2253B029
:1000CE00F72253B0EF2253B0DF2253A0FE2253A0EB
:1000DE00FD2253A0FB2253A0F72253A0EF2253A0E0
:0A00EE00DF2253A0BF2253A07F229F
:1000F800EF14B41E0040030201E190011075F003F3
:10010800A4C58325F0C5837302016A02016E02014A
:100118007202017602017A02017E020182020186E0
:1001280002018A02018E02019202019602019A02DC
:10013800019E0201A20201A60201AA0201AE020169
:10014800B20201B60201BA0201BE0201C20201C630
:100158000201CA0201CE0201D20201D60201DA026C
:1001680001DE438080224380402243802022438056
:1001780010224380082243800422438002224380C5
:10018800012243900122439002224390042243908B
:10019800082243901022439020224390402243900B
:1001A800802243B0012243B0022243B0042243B06C
:1001B800082243B0102243B0202243A0012243A0CA
:1001C800022243A0042243A0082243A0102243A0F5
:0A01D800202243A0402243A0802211
:0300000002028C6D
:0C028C00787FE4F6D8FD75810B0202D3E8
:100298000201E2E493A3F8E493A34003F68001F299
:1002A80008DFF48029E493A3F85407240CC8C33367
:1002B800C4540F4420C8834004F456800146F6DF36
:1002C800E4800B0102040810204080900003E47EC3
:1002D800019360BCA3FF543F30E509541FFEE4932B
:1002E800A360010ECF54C025E060A840B8E493A3F2
:1002F800FAE493A3F8E493A3C8C582C8CAC583CA1D
:10030800F0A3C8C582C8CAC583CADFE9DEE780BED4
:0100090000F6
:00000001FF
