:1001E200F2F3F5F5F6F7F8F9F9FAFAFBFBFCFCFC89
:1001F200FDFDFDFDFEFEFEFEFEFEFEFF42C117B648
:10020200D0D1B621E18CD868E95B8FEE446BB4F4AF
:100212002D4777A2B6DAFA16050202050201060296
:1002220001020204010202010201060101020204AA
:10023200050202050202060201010301060201058E
:100242000201010202010201060101020204050289
:100252000202020201020207010106010105010276
:100262000502020202020302010202010102030666
:100272000101020201030201020201010202020261
:0D028200010102020701010601010501064C
:03000B000203C627
:0D03C600C28CB2B685128C85138AD28C329F
:02037E008F0BE3
:10038000E4F50CE50CC3950B5039E4F510F50FF5C9
:100390000EF50DE47FA07E0FFDFCAB10AA0FA90E99
:1003A000A80DC312036D5017E5102401F510E435B4
:1003B0000FF50FE4350EF50EE4350DF50D80D4057F
:0503C0000C80C0C28C9E
:0103C5002215
:0B03F900E4F580F590F5A053B0C022A1
:0D03D3007580FF7590FF75A0FF43B03F22BD
:10000E00EF14B41E0040030200F790002675F003B3
:10001E00A4C58325F0C5837302008002008402000C
:10002E008802008C02009002009402009802009C4C
:10003E000200A00200A40200A80200AC0200B0025E
:10004E0000B40200B80200BC0200C00200C40200EC
:10005E00C80200CC0200D00200D40200D80200DC9C
:10006E000200E00200E40200E80200EC0200F002EE
:10007E0000F453807F225380BF225380DF225380AF
:10008E00EF225380F7225380FB225380FD225380B0
:10009E00FE225390FE225390FD225390FB2253904A
:1000AE00F7225390EF225390DF225390BF225390AA
:1000BE007F2253B0FE2253B0FD2253B0FB2253B029
:1000CE00F72253B0EF2253B0DF2253A0FE2253A0EB
:1000DE00FD2253A0FB2253A0F72253A0EF2253A0E0
:0A00EE00DF2253A0BF2253A07F229F
:1000F800EF14B41E0040030201E190011075F003F3
:10010800A4C58325F0C5837302016A02016E02014A
:100118007202017602017A02017E020182020186E0
:1001280002018A02018E02019202019602019A02DC
:10013800019E0201A20201A60201AA0201AE020169
:10014800B20201B60201BA0201BE0201C20201C630
:100158000201CA0201CE0201D20201D60201DA026C
:1001680001DE438080224380402243802022438056
:1001780010224380082243800422438002224380C5
:10018800012243900122439002224390042243908B
:10019800082243901022439020224390402243900B
:1001A800802243B0012243B0022243B0042243B06C
:1001B800082243B0102243B0202243A0012243A0CA
:1001C800022243A0042243A0082243A0102243A0F5
:0A01D800202243A0402243A0802211
:03000300C2B7225F
:03000600D2B7224C
:0D03E00085128C85138AD28CAF1102037E2A
:10028F00750900750A01758901D2A9D2AF1200064E
:10029F001200031203D3E4F508751101E51160F69E
:1002AF00AE09AF0A7C007D1E120318ED04FF120089
:1002BF000EE50890021B9375F007A4FFE508900266
:1002CF001A93FE2F24F8FF9001E293F512EF90019D
:1002DF00FE93F513E50890021C93F511EE7007AF2E
:1002EF001112037E80031203E074032508F50874CE
:1002FF0002250AF50AE43509F509E508D394754096
:09030F0003E4F5081203D3809306
:030000000203ED0B
:0C03ED00787FE4F6D8FD75811302028FC2
:10031800BC000BBE0029EF8DF084FFADF022E4CCC9
:10032800F875F008EF2FFFEE33FEEC33FCEE9DEC92
:10033800984005FCEE9DFE0FD5F0E9E4CEFD22EDD8
:10034800F8F5F0EE8420D21CFEADF075F008EF2F22
:10035800FFED33FD4007985006D5F0F222C398FD13
:050368000FD5F0EA22B0
:10036D00EB9FF5F0EA9E42F0E99D42F0E89C45F0E6
:01037D00225D
:00000001FF
